{
  "transactions": [
    {
      "hash": "0x7db27c647823c5926ed46959a875013155ef7188e4f21ab62d3aadf61e6b7355",
      "transactionType": "CALL",
      "contractName": null,
      "contractAddress": "0x10846782C728a193102A7cf3a7c40E2071Ebc958",
      "function": "placeOrder(bytes32,uint256)",
      "arguments": [
        "0x6059a610d1bd4b0ab545b72187949c9e00000000000000000000000000000000",
        "233593456789"
      ],
      "transaction": {
        "type": "0x02",
        "from": "0x9038be19f4520b1d282c953cbe0a5b4a9ca144fe",
        "to": "0x10846782c728a193102a7cf3a7c40e2071ebc958",
        "gas": "0xc919",
        "value": "0xe8d4a51000",
        "data": "0xc9d225896059a610d1bd4b0ab545b72187949c9e000000000000000000000000000000000000000000000000000000000000000000000000000000000000003663414895",
        "nonce": "0x3c",
        "accessList": []
      },
      "additionalContracts": [],
      "isFixedGasLimit": false
    }
  ],
  "receipts": [
    {
      "transactionHash": "0x7db27c647823c5926ed46959a875013155ef7188e4f21ab62d3aadf61e6b7355",
      "transactionIndex": "0x56",
      "blockHash": "0xb438df25223d9602b0e81d82c4ad21b637d6a62d75dc131c7e84cdbf32545257",
      "blockNumber": "0x60a0cc",
      "from": "0x9038be19F4520B1d282c953CBe0A5b4a9CA144Fe",
      "to": "0x10846782C728a193102A7cf3a7c40E2071Ebc958",
      "cumulativeGasUsed": "0x4f8834",
      "gasUsed": "0x8981",
      "contractAddress": null,
      "logs": [
        {
          "address": "0x10846782C728a193102A7cf3a7c40E2071Ebc958",
          "topics": [
            "0x3d4667c444d3da532425239031a43ccdc13ae64ee04c548c4036f8e6154027b3",
            "0x6059a610d1bd4b0ab545b72187949c9e00000000000000000000000000000000",
            "0x000000000000000000000000000000000000000000000000000000e8d4a51000",
            "0x0000000000000000000000000000000000000000000000000000003663414895"
          ],
          "data": "0x",
          "blockHash": "0xb438df25223d9602b0e81d82c4ad21b637d6a62d75dc131c7e84cdbf32545257",
          "blockNumber": "0x60a0cc",
          "transactionHash": "0x7db27c647823c5926ed46959a875013155ef7188e4f21ab62d3aadf61e6b7355",
          "transactionIndex": "0x56",
          "logIndex": "0x53",
          "removed": false
        }
      ],
      "status": "0x1",
      "logsBloom": "0x00000000000000000000000000000000000000000000000002000000000000800000000000000000000000000000000000000000000000000000000000000000000000000000000000000000000040000000000000000000000000000000200000000000000040000000000000000000000000000000400000000000000000000000000000000000200000000001000000000000000000000008000000000000000000000001000000000000000000000001000000000000000000080000000000040000000000000000020000000000000000000000000000000000000000000000000000000000000000000000000000000100000000000000000000000000",
      "type": "0x2",
      "effectiveGasPrice": "0x10778f8390"
    }
  ],
  "libraries": [],
  "pending": [],
  "returns": {},
  "timestamp": 1721297222,
  "chain": 11155111,
  "multi": false,
  "commit": "d8aed20"
}