{
  "transactions": [
    {
      "hash": "0x8a83e0adcc35042228b8e29a3df39f9824ae2fb0e6d38326c4fba749381f4ac2",
      "transactionType": "CALL",
      "contractName": null,
      "contractAddress": "0xf54651Ea6aCB0656B51ADCce384C233aF7e4bF5B",
      "function": "placeOrder(string,uint256,string,uint256)",
      "arguments": [
        "\"6059a610-d1bd-4b0a-b545-b72187949c9e\"",
        "50241994576750518761357444112077064459071799533665784978875309381287767266877",
        "\"233593456789\"",
        "1"
      ],
      "transaction": {
        "type": "0x02",
        "from": "0x9038be19f4520b1d282c953cbe0a5b4a9ca144fe",
        "to": "0xf54651ea6acb0656b51adcce384c233af7e4bf5b",
        "gas": "0x1dc02",
        "value": "0x0",
        "data": "0x858c1a5400000000000000000000000000000000000000000000000000000000000000806f13f61111a1866ccb266b65a57248c158ef95fbd40e4a311f53026ef791563d00000000000000000000000000000000000000000000000000000000000000e00000000000000000000000000000000000000000000000000000000000000001000000000000000000000000000000000000000000000000000000000000002436303539613631302d643162642d346230612d623534352d62373231383739343963396500000000000000000000000000000000000000000000000000000000000000000000000000000000000000000000000000000000000000000000000c3233333539333435363738390000000000000000000000000000000000000000",
        "nonce": "0x15",
        "accessList": []
      },
      "additionalContracts": [],
      "isFixedGasLimit": false
    }
  ],
  "receipts": [],
  "libraries": [],
  "pending": [
    "0x8a83e0adcc35042228b8e29a3df39f9824ae2fb0e6d38326c4fba749381f4ac2"
  ],
  "returns": {},
  "timestamp": 1721210611,
  "chain": 11155111,
  "multi": false,
  "commit": "d8aed20"
}