{
  "transactions": [
    {
      "hash": "0xe16ec6db37102401894a4f9c570a168cc311a39dbe4dc2ef7854e55b1ddd1b81",
      "transactionType": "CALL",
      "contractName": null,
      "contractAddress": "0x3eD68b924A5A3BBb5776Bf7f2fDD241b5f292e30",
      "function": "placeOrder(uint256,uint256,uint256)",
      "arguments": [
        "128071370228317538270808456587510062238",
        "50241994576750518761357444112077064459071799533665784978875309381287767266877",
        "233593456789"
      ],
      "transaction": {
        "type": "0x02",
        "from": "0x9038be19f4520b1d282c953cbe0a5b4a9ca144fe",
        "to": "0x3ed68b924a5a3bbb5776bf7f2fdd241b5f292e30",
        "gas": "0x38445",
        "value": "0xe8d4a51000",
        "data": "0x0e97cfdf000000000000000000000000000000006059a610d1bd4b0ab545b72187949c9e6f13f61111a1866ccb266b65a57248c158ef95fbd40e4a311f53026ef791563d0000000000000000000000000000000000000000000000000000003663414895",
        "nonce": "0x2c",
        "accessList": []
      },
      "additionalContracts": [],
      "isFixedGasLimit": false
    }
  ],
  "receipts": [
    {
      "transactionHash": "0xe16ec6db37102401894a4f9c570a168cc311a39dbe4dc2ef7854e55b1ddd1b81",
      "transactionIndex": "0x11",
      "blockHash": "0xe6098cabd41359e42b6163b81c806d1471abecf78d6b87a82c8ee6a0791d16ab",
      "blockNumber": "0x609249",
      "from": "0x9038be19F4520B1d282c953CBe0A5b4a9CA144Fe",
      "to": "0x3eD68b924A5A3BBb5776Bf7f2fDD241b5f292e30",
      "cumulativeGasUsed": "0x14351d",
      "gasUsed": "0x26792",
      "contractAddress": null,
      "logs": [
        {
          "address": "0x3eD68b924A5A3BBb5776Bf7f2fDD241b5f292e30",
          "topics": [
            "0x70200d56b421e24e343cd9b63f0f99c58bcf9ee878fc4be0b34fce22aa629606",
            "0x000000000000000000000000000000006059a610d1bd4b0ab545b72187949c9e",
            "0x000000000000000000000000000000000000000000000000000000e8d4a51000",
            "0x0000000000000000000000000000000000000000000000000000003663414895"
          ],
          "data": "0x6f13f61111a1866ccb266b65a57248c158ef95fbd40e4a311f53026ef791563d",
          "blockHash": "0xe6098cabd41359e42b6163b81c806d1471abecf78d6b87a82c8ee6a0791d16ab",
          "blockNumber": "0x609249",
          "transactionHash": "0xe16ec6db37102401894a4f9c570a168cc311a39dbe4dc2ef7854e55b1ddd1b81",
          "transactionIndex": "0x11",
          "logIndex": "0x15",
          "removed": false
        }
      ],
      "status": "0x1",
      "logsBloom": "0x00000000000000000000000000000000000000000000000000000000000000800000000000000000000000000000400000000100000000000000000000000000000000000000000000000000000040000000000000000000000000000000200000000000000040000000000000000000000000000000100000000000000000000001000000000000000000000000001000000000000000000000000000000080040000000000080000000000000000000001000000000000000000000000000000040000000000000000000000000000000000000000000000000000000000000000000000000000000000000000000000000000000000000000000000000000",
      "type": "0x2",
      "effectiveGasPrice": "0x3c5f21386"
    }
  ],
  "libraries": [],
  "pending": [],
  "returns": {},
  "timestamp": 1721241592,
  "chain": 11155111,
  "multi": false,
  "commit": "d8aed20"
}