{
  "transactions": [
    {
      "hash": "0x7db27c647823c5926ed46959a875013155ef7188e4f21ab62d3aadf61e6b7355",
      "transactionType": "CALL",
      "contractName": null,
      "contractAddress": "0x10846782C728a193102A7cf3a7c40E2071Ebc958",
      "function": "placeOrder(bytes32,uint256)",
      "arguments": [
        "0x6059a610d1bd4b0ab545b72187949c9e00000000000000000000000000000000",
        "233593456789"
      ],
      "transaction": {
        "type": "0x02",
        "from": "0x9038be19f4520b1d282c953cbe0a5b4a9ca144fe",
        "to": "0x10846782c728a193102a7cf3a7c40e2071ebc958",
        "gas": "0xc919",
        "value": "0xe8d4a51000",
        "data": "0xc9d225896059a610d1bd4b0ab545b72187949c9e000000000000000000000000000000000000000000000000000000000000000000000000000000000000003663414895",
        "nonce": "0x3c",
        "accessList": []
      },
      "additionalContracts": [],
      "isFixedGasLimit": false
    }
  ],
  "receipts": [],
  "libraries": [],
  "pending": [
    "0x7db27c647823c5926ed46959a875013155ef7188e4f21ab62d3aadf61e6b7355"
  ],
  "returns": {},
  "timestamp": 1721297209,
  "chain": 11155111,
  "multi": false,
  "commit": "d8aed20"
}