{
  "transactions": [
    {
      "hash": "0x33e07e9780d8d8c7910e717fa3fbdbc8010eb69b4cff2f84b9814a23b5cae135",
      "transactionType": "CALL",
      "contractName": null,
      "contractAddress": "0x24cAf23ED3432a406Eb8e90a03d103EBBC7A34C9",
      "function": "placeOrder(bytes32,uint256,uint256)",
      "arguments": [
        "0x6059a610d1bd4b0ab545b72187949c9e00000000000000000000000000000000",
        "59587637851456702649880133713947382352111706195027624370084739226844846024520",
        "233593456789"
      ],
      "transaction": {
        "type": "0x02",
        "from": "0x9038be19f4520b1d282c953cbe0a5b4a9ca144fe",
        "to": "0x24caf23ed3432a406eb8e90a03d103ebbc7a34c9",
        "gas": "0xce44",
        "value": "0xe8d4a51000",
        "data": "0x9d2c8f2d6059a610d1bd4b0ab545b72187949c9e0000000000000000000000000000000083bd68683c4ed7bf72060df8db9d53b9a5e9530804ddefe5c5c4b26c6f8ae7480000000000000000000000000000000000000000000000000000003663414895",
        "nonce": "0x39",
        "accessList": []
      },
      "additionalContracts": [],
      "isFixedGasLimit": false
    }
  ],
  "receipts": [
    {
      "transactionHash": "0x33e07e9780d8d8c7910e717fa3fbdbc8010eb69b4cff2f84b9814a23b5cae135",
      "transactionIndex": "0x15",
      "blockHash": "0xc85c3b760c417a34a17c2a7787897813fe9b9729b23d08ff7f560ad9afec82aa",
      "blockNumber": "0x60a023",
      "from": "0x9038be19F4520B1d282c953CBe0A5b4a9CA144Fe",
      "to": "0x24cAf23ED3432a406Eb8e90a03d103EBBC7A34C9",
      "cumulativeGasUsed": "0x175402",
      "gasUsed": "0x9556",
      "contractAddress": null,
      "logs": [
        {
          "address": "0x24cAf23ED3432a406Eb8e90a03d103EBBC7A34C9",
          "topics": [
            "0x6239ab9e61392c8ae40f6f0fb586f4ac54c41e09738751365887176c30bb0809",
            "0x6059a610d1bd4b0ab545b72187949c9e00000000000000000000000000000000",
            "0x000000000000000000000000000000000000000000000000000000e8d4a51000",
            "0x0000000000000000000000000000000000000000000000000000003663414895"
          ],
          "data": "0x83bd68683c4ed7bf72060df8db9d53b9a5e9530804ddefe5c5c4b26c6f8ae748",
          "blockHash": "0xc85c3b760c417a34a17c2a7787897813fe9b9729b23d08ff7f560ad9afec82aa",
          "blockNumber": "0x60a023",
          "transactionHash": "0x33e07e9780d8d8c7910e717fa3fbdbc8010eb69b4cff2f84b9814a23b5cae135",
          "transactionIndex": "0x15",
          "logIndex": "0x7",
          "removed": false
        }
      ],
      "status": "0x1",
      "logsBloom": "0x00000000000000000000000000000000000000000000000000000000400000800000000000000000000000000000000000000000000000000000000000000000000000000000000000000000000040000000000000000000000000000000200010000000000040000000000000000000000000000000400000000010000000000000020000000000200000000000000000000000000000000001000000000000000000000000000000000000000000000001000000000000000000000000000000040000000000000000000000000000000020000000000000000000000000000000000000000000000000000000000000000100000000000000000000000000",
      "type": "0x2",
      "effectiveGasPrice": "0x5aea54fe5"
    }
  ],
  "libraries": [],
  "pending": [],
  "returns": {},
  "timestamp": 1721294649,
  "chain": 11155111,
  "multi": false,
  "commit": "d8aed20"
}