{
  "transactions": [
    {
      "hash": "0x49603b4dbe4a56b49d85c974d1222af10ec1067e07c115441f6a2d54b8873d79",
      "transactionType": "CALL",
      "contractName": null,
      "contractAddress": "0xD3d378dBA136330a4352DdC811201E4801F178F7",
      "function": "placeOrder(uint256,uint256,uint64)",
      "arguments": [
        "128071370228317538270808456587510062238",
        "50241994576750518761357444112077064459071799533665784978875309381287767266877",
        "233593456789"
      ],
      "transaction": {
        "type": "0x02",
        "from": "0x9038be19f4520b1d282c953cbe0a5b4a9ca144fe",
        "to": "0xd3d378dba136330a4352ddc811201e4801f178f7",
        "gas": "0x7805",
        "value": "0xe8d4a51000",
        "data": "0xf8e3885f000000000000000000000000000000006059a610d1bd4b0ab545b72187949c9e6f13f61111a1866ccb266b65a57248c158ef95fbd40e4a311f53026ef791563d0000000000000000000000000000000000000000000000000000003663414895",
        "nonce": "0x25",
        "accessList": []
      },
      "additionalContracts": [],
      "isFixedGasLimit": false
    }
  ],
  "receipts": [],
  "libraries": [],
  "pending": [
    "0x49603b4dbe4a56b49d85c974d1222af10ec1067e07c115441f6a2d54b8873d79"
  ],
  "returns": {},
  "timestamp": 1721240060,
  "chain": 11155111,
  "multi": false,
  "commit": "d8aed20"
}