{
  "transactions": [
    {
      "hash": "0xe3edcf1094ef22818ed787a3d420a21ca31129a2bdf20e8e58a60293e1729f5c",
      "transactionType": "CALL",
      "contractName": null,
      "contractAddress": "0x10846782C728a193102A7cf3a7c40E2071Ebc958",
      "function": "placeOrder(bytes32,uint256)",
      "arguments": [
        "0x6059a610d1bd4b0ab545b72187949c9e00000000000000000000000000000000",
        "233593456789"
      ],
      "transaction": {
        "type": "0x02",
        "from": "0x9038be19f4520b1d282c953cbe0a5b4a9ca144fe",
        "to": "0x10846782c728a193102a7cf3a7c40e2071ebc958",
        "gas": "0xc919",
        "value": "0xe8d4a51000",
        "data": "0xc9d225896059a610d1bd4b0ab545b72187949c9e000000000000000000000000000000000000000000000000000000000000000000000000000000000000003663414895",
        "nonce": "0x3d",
        "accessList": []
      },
      "additionalContracts": [],
      "isFixedGasLimit": false
    }
  ],
  "receipts": [
    {
      "transactionHash": "0xe3edcf1094ef22818ed787a3d420a21ca31129a2bdf20e8e58a60293e1729f5c",
      "transactionIndex": "0x10",
      "blockHash": "0x967e5fc23794b52271a8a613cfb855c297f410d5e9352e1261115ab7ee8967ef",
      "blockNumber": "0x60a12c",
      "from": "0x9038be19F4520B1d282c953CBe0A5b4a9CA144Fe",
      "to": "0x10846782C728a193102A7cf3a7c40E2071Ebc958",
      "cumulativeGasUsed": "0x13225b",
      "gasUsed": "0x8981",
      "contractAddress": null,
      "logs": [
        {
          "address": "0x10846782C728a193102A7cf3a7c40E2071Ebc958",
          "topics": [
            "0x3d4667c444d3da532425239031a43ccdc13ae64ee04c548c4036f8e6154027b3",
            "0x6059a610d1bd4b0ab545b72187949c9e00000000000000000000000000000000",
            "0x000000000000000000000000000000000000000000000000000000e8d4a51000",
            "0x0000000000000000000000000000000000000000000000000000003663414895"
          ],
          "data": "0x",
          "blockHash": "0x967e5fc23794b52271a8a613cfb855c297f410d5e9352e1261115ab7ee8967ef",
          "blockNumber": "0x60a12c",
          "transactionHash": "0xe3edcf1094ef22818ed787a3d420a21ca31129a2bdf20e8e58a60293e1729f5c",
          "transactionIndex": "0x10",
          "logIndex": "0x10",
          "removed": false
        }
      ],
      "status": "0x1",
      "logsBloom": "0x00000000000000000000000000000000000000000000000002000000000000800000000000000000000000000000000000000000000000000000000000000000000000000000000000000000000040000000000000000000000000000000200000000000000040000000000000000000000000000000400000000000000000000000000000000000200000000001000000000000000000000008000000000000000000000001000000000000000000000001000000000000000000080000000000040000000000000000020000000000000000000000000000000000000000000000000000000000000000000000000000000100000000000000000000000000",
      "type": "0x2",
      "effectiveGasPrice": "0x7ef94a9ca"
    }
  ],
  "libraries": [],
  "pending": [],
  "returns": {},
  "timestamp": 1721298665,
  "chain": 11155111,
  "multi": false,
  "commit": "d8aed20"
}