{
  "transactions": [
    {
      "hash": "0x79b3e7c0b065b4ddafe787076e99b4b0729eefe86ca4a292f091dc6fbbf6f6ad",
      "transactionType": "CALL",
      "contractName": null,
      "contractAddress": "0xD3d378dBA136330a4352DdC811201E4801F178F7",
      "function": "placeOrder(string,uint256,string)",
      "arguments": [
        "\"6059a610-d1bd-4b0a-b545-b72187949c9e\"",
        "50241994576750518761357444112077064459071799533665784978875309381287767266877",
        "\"233593456789\""
      ],
      "transaction": {
        "type": "0x02",
        "from": "0x9038be19f4520b1d282c953cbe0a5b4a9ca144fe",
        "to": "0xd3d378dba136330a4352ddc811201e4801f178f7",
        "gas": "0x10715",
        "value": "0xe8d4a51000",
        "data": "0x425ce8c200000000000000000000000000000000000000000000000000000000000000606f13f61111a1866ccb266b65a57248c158ef95fbd40e4a311f53026ef791563d00000000000000000000000000000000000000000000000000000000000000c0000000000000000000000000000000000000000000000000000000000000002436303539613631302d643162642d346230612d623534352d62373231383739343963396500000000000000000000000000000000000000000000000000000000000000000000000000000000000000000000000000000000000000000000000c3233333539333435363738390000000000000000000000000000000000000000",
        "nonce": "0x23",
        "accessList": []
      },
      "additionalContracts": [],
      "isFixedGasLimit": false
    }
  ],
  "receipts": [
    {
      "transactionHash": "0x79b3e7c0b065b4ddafe787076e99b4b0729eefe86ca4a292f091dc6fbbf6f6ad",
      "transactionIndex": "0xb",
      "blockHash": "0xe7d341ff0d330a7f615bb8a3b853b0d69f30aa5c8ce0581c14a77d94d36e7670",
      "blockNumber": "0x609195",
      "from": "0x9038be19F4520B1d282c953CBe0A5b4a9CA144Fe",
      "to": "0xD3d378dBA136330a4352DdC811201E4801F178F7",
      "cumulativeGasUsed": "0xd93f5",
      "gasUsed": "0xb3e3",
      "contractAddress": null,
      "logs": [
        {
          "address": "0xD3d378dBA136330a4352DdC811201E4801F178F7",
          "topics": [
            "0x792b2a09d04274ffd50e59c7140635e241979bfa4ce439860c0c3ef82124e42e",
            "0x6f13f61111a1866ccb266b65a57248c158ef95fbd40e4a311f53026ef791563d",
            "0x000000000000000000000000000000000000000000000000000000e8d4a51000",
            "0x9e990a67c2f38f21caf5afdd1be260ee659975e550538ca9355578036fcc3451"
          ],
          "data": "0x6f13f61111a1866ccb266b65a57248c158ef95fbd40e4a311f53026ef791563d",
          "blockHash": "0xe7d341ff0d330a7f615bb8a3b853b0d69f30aa5c8ce0581c14a77d94d36e7670",
          "blockNumber": "0x609195",
          "transactionHash": "0x79b3e7c0b065b4ddafe787076e99b4b0729eefe86ca4a292f091dc6fbbf6f6ad",
          "transactionIndex": "0xb",
          "logIndex": "0xf",
          "removed": false
        }
      ],
      "status": "0x1",
      "logsBloom": "0x00000000000000000000000000000000000000000000000000000000000000080000000000000000000000000000000000000000000000000008000000000000000000000000000000000000000000000000000000000000000000000000000000000000000040000000000100000000000000000000000000000000000000000240000000000000000000000000000000000000000100000000000000000000000000010000000000000000000000000001400000000000000000000000000001040020000000000000000800000000000000002000000000000000000000000000000000000000000000000000000000000000000000000000000000000000",
      "type": "0x2",
      "effectiveGasPrice": "0x113a14c61b"
    }
  ],
  "libraries": [],
  "pending": [],
  "returns": {},
  "timestamp": 1721239026,
  "chain": 11155111,
  "multi": false,
  "commit": "d8aed20"
}