{
  "transactions": [
    {
      "hash": "0x8a83e0adcc35042228b8e29a3df39f9824ae2fb0e6d38326c4fba749381f4ac2",
      "transactionType": "CALL",
      "contractName": null,
      "contractAddress": "0xf54651Ea6aCB0656B51ADCce384C233aF7e4bF5B",
      "function": "placeOrder(string,uint256,string,uint256)",
      "arguments": [
        "\"6059a610-d1bd-4b0a-b545-b72187949c9e\"",
        "50241994576750518761357444112077064459071799533665784978875309381287767266877",
        "\"233593456789\"",
        "1"
      ],
      "transaction": {
        "type": "0x02",
        "from": "0x9038be19f4520b1d282c953cbe0a5b4a9ca144fe",
        "to": "0xf54651ea6acb0656b51adcce384c233af7e4bf5b",
        "gas": "0x1dc02",
        "value": "0x0",
        "data": "0x858c1a5400000000000000000000000000000000000000000000000000000000000000806f13f61111a1866ccb266b65a57248c158ef95fbd40e4a311f53026ef791563d00000000000000000000000000000000000000000000000000000000000000e00000000000000000000000000000000000000000000000000000000000000001000000000000000000000000000000000000000000000000000000000000002436303539613631302d643162642d346230612d623534352d62373231383739343963396500000000000000000000000000000000000000000000000000000000000000000000000000000000000000000000000000000000000000000000000c3233333539333435363738390000000000000000000000000000000000000000",
        "nonce": "0x15",
        "accessList": []
      },
      "additionalContracts": [],
      "isFixedGasLimit": false
    }
  ],
  "receipts": [
    {
      "transactionHash": "0x8a83e0adcc35042228b8e29a3df39f9824ae2fb0e6d38326c4fba749381f4ac2",
      "transactionIndex": "0xc",
      "blockHash": "0x8195d8403649194168344e250b909a2b0554dd2f008c10c1d9d585e9d6605e5e",
      "blockNumber": "0x6089b0",
      "from": "0x9038be19F4520B1d282c953CBe0A5b4a9CA144Fe",
      "to": "0xf54651Ea6aCB0656B51ADCce384C233aF7e4bF5B",
      "cumulativeGasUsed": "0x15de60",
      "gasUsed": "0x1457a",
      "contractAddress": null,
      "logs": [
        {
          "address": "0x1c7D4B196Cb0C7B01d743Fbc6116a902379C7238",
          "topics": [
            "0xddf252ad1be2c89b69c2b068fc378daa952ba7f163c4a11628f55a4df523b3ef",
            "0x0000000000000000000000009038be19f4520b1d282c953cbe0a5b4a9ca144fe",
            "0x000000000000000000000000f54651ea6acb0656b51adcce384c233af7e4bf5b"
          ],
          "data": "0x0000000000000000000000000000000000000000000000000000000000000001",
          "blockHash": "0x8195d8403649194168344e250b909a2b0554dd2f008c10c1d9d585e9d6605e5e",
          "blockNumber": "0x6089b0",
          "transactionHash": "0x8a83e0adcc35042228b8e29a3df39f9824ae2fb0e6d38326c4fba749381f4ac2",
          "transactionIndex": "0xc",
          "logIndex": "0x13",
          "removed": false
        },
        {
          "address": "0xf54651Ea6aCB0656B51ADCce384C233aF7e4bF5B",
          "topics": [
            "0x413402daf37146137145966f347fa2240be22d7227a3273458a1e5c557f35410",
            "0x6f13f61111a1866ccb266b65a57248c158ef95fbd40e4a311f53026ef791563d",
            "0x6f13f61111a1866ccb266b65a57248c158ef95fbd40e4a311f53026ef791563d"
          ],
          "data": "0x000000000000000000000000000000000000000000000000000000000000000100000000000000000000000000000000000000000000000000000000000000010000000000000000000000000000000000000000000000000000000000000060000000000000000000000000000000000000000000000000000000000000000c3233333539333435363738390000000000000000000000000000000000000000",
          "blockHash": "0x8195d8403649194168344e250b909a2b0554dd2f008c10c1d9d585e9d6605e5e",
          "blockNumber": "0x6089b0",
          "transactionHash": "0x8a83e0adcc35042228b8e29a3df39f9824ae2fb0e6d38326c4fba749381f4ac2",
          "transactionIndex": "0xc",
          "logIndex": "0x14",
          "removed": false
        }
      ],
      "status": "0x1",
      "logsBloom": "0x00000000002000000000000000000000010000000000000000000040000200000000000000000000000000000000000000000000000040000020000000000000000000000000010008000008000000000000000000002100000000000000000000400000000000000000000000000000000000000000000000000010000000000000000000100000000000000000000020000000000100000000000000000000000000000000000000000000000000000000400000000000000000000000000001000002000000000000000000400000000000000000000000000000000000000000000000000000000010000000000000000000000000000000000000000000",
      "type": "0x2",
      "effectiveGasPrice": "0x4c5ec919f"
    }
  ],
  "libraries": [],
  "pending": [],
  "returns": {},
  "timestamp": 1721210624,
  "chain": 11155111,
  "multi": false,
  "commit": "d8aed20"
}