{
  "transactions": [
    {
      "hash": "0x24c3df77301f6822ee1bd430a708d1c876553d9b0bbba664dc4ddc9a8cfb0b4f",
      "transactionType": "CALL",
      "contractName": null,
      "contractAddress": "0x10846782C728a193102A7cf3a7c40E2071Ebc958",
      "function": "placeOrder(bytes32,uint256)",
      "arguments": [
        "0x6059a610d1bd4b0ab545b72187949c9e00000000000000000000000000000000",
        "233593456789"
      ],
      "transaction": {
        "type": "0x02",
        "from": "0x9038be19f4520b1d282c953cbe0a5b4a9ca144fe",
        "to": "0x10846782c728a193102a7cf3a7c40e2071ebc958",
        "gas": "0xc919",
        "value": "0x5af3107a4000",
        "data": "0xc9d225896059a610d1bd4b0ab545b72187949c9e000000000000000000000000000000000000000000000000000000000000000000000000000000000000003663414895",
        "nonce": "0x43",
        "accessList": []
      },
      "additionalContracts": [],
      "isFixedGasLimit": false
    }
  ],
  "receipts": [
    {
      "transactionHash": "0x24c3df77301f6822ee1bd430a708d1c876553d9b0bbba664dc4ddc9a8cfb0b4f",
      "transactionIndex": "0x13",
      "blockHash": "0x7782862633479e95e74a017e087f66ca637e8ce131fc9e62ccdebae41490dbdf",
      "blockNumber": "0x60a223",
      "from": "0x9038be19F4520B1d282c953CBe0A5b4a9CA144Fe",
      "to": "0x10846782C728a193102A7cf3a7c40E2071Ebc958",
      "cumulativeGasUsed": "0x195e10",
      "gasUsed": "0x8981",
      "contractAddress": null,
      "logs": [
        {
          "address": "0x10846782C728a193102A7cf3a7c40E2071Ebc958",
          "topics": [
            "0x3d4667c444d3da532425239031a43ccdc13ae64ee04c548c4036f8e6154027b3",
            "0x6059a610d1bd4b0ab545b72187949c9e00000000000000000000000000000000",
            "0x00000000000000000000000000000000000000000000000000005af3107a4000",
            "0x0000000000000000000000000000000000000000000000000000003663414895"
          ],
          "data": "0x",
          "blockHash": "0x7782862633479e95e74a017e087f66ca637e8ce131fc9e62ccdebae41490dbdf",
          "blockNumber": "0x60a223",
          "transactionHash": "0x24c3df77301f6822ee1bd430a708d1c876553d9b0bbba664dc4ddc9a8cfb0b4f",
          "transactionIndex": "0x13",
          "logIndex": "0x15",
          "removed": false
        }
      ],
      "status": "0x1",
      "logsBloom": "0x00000000000000000000000000000000000000800000000002000000000000800000000000000000000000000000000000000000000000000000000000000000000000000000000000000000000040000000000000000000000000000000200000000000000000000000000000000000000000000000400000000000000000000000000000000000200000000001000000000000000000000008000000000000000000000001000000000000000000000000000000000000000000080000000000000000000000000800020000000000000000000000000000000000004000000000000000000000000000000000000000000100000000000000000000000000",
      "type": "0x2",
      "effectiveGasPrice": "0x113eea5b0"
    }
  ],
  "libraries": [],
  "pending": [],
  "returns": {},
  "timestamp": 1721302133,
  "chain": 11155111,
  "multi": false,
  "commit": "26d89f6"
}