{
  "transactions": [
    {
      "hash": "0x38bf1d4da3f16a077bffaecd3451bbbf94ba3680f7a4ef495223386e6cab9c6d",
      "transactionType": "CALL",
      "contractName": null,
      "contractAddress": "0xf54651Ea6aCB0656B51ADCce384C233aF7e4bF5B",
      "function": "placeOrder(string,uint256,string,uint256)",
      "arguments": [
        "\"6059a610-d1bd-4b0a-b545-b72187949c9e\"",
        "50241994576750518761357444112077064459071799533665784978875309381287767266877",
        "\"233593456789\"",
        "1"
      ],
      "transaction": {
        "type": "0x02",
        "from": "0x9038be19f4520b1d282c953cbe0a5b4a9ca144fe",
        "to": "0xf54651ea6acb0656b51adcce384c233af7e4bf5b",
        "gas": "0x1dc02",
        "value": "0x0",
        "data": "0x858c1a5400000000000000000000000000000000000000000000000000000000000000806f13f61111a1866ccb266b65a57248c158ef95fbd40e4a311f53026ef791563d00000000000000000000000000000000000000000000000000000000000000e00000000000000000000000000000000000000000000000000000000000000001000000000000000000000000000000000000000000000000000000000000002436303539613631302d643162642d346230612d623534352d62373231383739343963396500000000000000000000000000000000000000000000000000000000000000000000000000000000000000000000000000000000000000000000000c3233333539333435363738390000000000000000000000000000000000000000",
        "nonce": "0xd",
        "accessList": []
      },
      "additionalContracts": [],
      "isFixedGasLimit": false
    }
  ],
  "receipts": [
    {
      "transactionHash": "0x38bf1d4da3f16a077bffaecd3451bbbf94ba3680f7a4ef495223386e6cab9c6d",
      "transactionIndex": "0x4",
      "blockHash": "0x1492cff7d37382532f985df4808aacfcc1c3f6122946ed37e47be8838cfd5647",
      "blockNumber": "0x6074cd",
      "from": "0x9038be19F4520B1d282c953CBe0A5b4a9CA144Fe",
      "to": "0xf54651Ea6aCB0656B51ADCce384C233aF7e4bF5B",
      "cumulativeGasUsed": "0x6b2c1",
      "gasUsed": "0x1457a",
      "contractAddress": null,
      "logs": [
        {
          "address": "0x1c7D4B196Cb0C7B01d743Fbc6116a902379C7238",
          "topics": [
            "0xddf252ad1be2c89b69c2b068fc378daa952ba7f163c4a11628f55a4df523b3ef",
            "0x0000000000000000000000009038be19f4520b1d282c953cbe0a5b4a9ca144fe",
            "0x000000000000000000000000f54651ea6acb0656b51adcce384c233af7e4bf5b"
          ],
          "data": "0x0000000000000000000000000000000000000000000000000000000000000001",
          "blockHash": "0x1492cff7d37382532f985df4808aacfcc1c3f6122946ed37e47be8838cfd5647",
          "blockNumber": "0x6074cd",
          "transactionHash": "0x38bf1d4da3f16a077bffaecd3451bbbf94ba3680f7a4ef495223386e6cab9c6d",
          "transactionIndex": "0x4",
          "logIndex": "0x8",
          "removed": false
        },
        {
          "address": "0xf54651Ea6aCB0656B51ADCce384C233aF7e4bF5B",
          "topics": [
            "0x413402daf37146137145966f347fa2240be22d7227a3273458a1e5c557f35410",
            "0x6f13f61111a1866ccb266b65a57248c158ef95fbd40e4a311f53026ef791563d",
            "0x6f13f61111a1866ccb266b65a57248c158ef95fbd40e4a311f53026ef791563d"
          ],
          "data": "0x000000000000000000000000000000000000000000000000000000000000000100000000000000000000000000000000000000000000000000000000000000010000000000000000000000000000000000000000000000000000000000000060000000000000000000000000000000000000000000000000000000000000000c3233333539333435363738390000000000000000000000000000000000000000",
          "blockHash": "0x1492cff7d37382532f985df4808aacfcc1c3f6122946ed37e47be8838cfd5647",
          "blockNumber": "0x6074cd",
          "transactionHash": "0x38bf1d4da3f16a077bffaecd3451bbbf94ba3680f7a4ef495223386e6cab9c6d",
          "transactionIndex": "0x4",
          "logIndex": "0x9",
          "removed": false
        }
      ],
      "status": "0x1",
      "logsBloom": "0x00000000002000000000000000000000010000000000000000000040000200000000000000000000000000000000000000000000000040000020000000000000000000000000010008000008000000000000000000002100000000000000000000400000000000000000000000000000000000000000000000000010000000000000000000100000000000000000000020000000000100000000000000000000000000000000000000000000000000000000400000000000000000000000000001000002000000000000000000400000000000000000000000000000000000000000000000000000000010000000000000000000000000000000000000000000",
      "type": "0x2",
      "effectiveGasPrice": "0x16f2f0025"
    }
  ],
  "libraries": [],
  "pending": [],
  "returns": {},
  "timestamp": 1721135475,
  "chain": 11155111,
  "multi": false,
  "commit": "d8aed20"
}