{
  "transactions": [
    {
      "hash": "0x1a459109481d02ca322536b54c7b6739b68f7d7425c36b5f31442048ea88b67e",
      "transactionType": "CALL",
      "contractName": null,
      "contractAddress": "0x565F94889865703Af705f6571e264358b9849b4D",
      "function": "placeOrder(uint256,uint256,uint64)",
      "arguments": [
        "128071370228317538270808456587510062238",
        "50241994576750518761357444112077064459071799533665784978875309381287767266877",
        "233593456789"
      ],
      "transaction": {
        "type": "0x02",
        "from": "0x9038be19f4520b1d282c953cbe0a5b4a9ca144fe",
        "to": "0x565f94889865703af705f6571e264358b9849b4d",
        "gas": "0x35322",
        "value": "0xe8d4a51000",
        "data": "0xf8e3885f000000000000000000000000000000006059a610d1bd4b0ab545b72187949c9e6f13f61111a1866ccb266b65a57248c158ef95fbd40e4a311f53026ef791563d0000000000000000000000000000000000000000000000000000003663414895",
        "nonce": "0x27",
        "accessList": []
      },
      "additionalContracts": [],
      "isFixedGasLimit": false
    }
  ],
  "receipts": [
    {
      "transactionHash": "0x1a459109481d02ca322536b54c7b6739b68f7d7425c36b5f31442048ea88b67e",
      "transactionIndex": "0xa",
      "blockHash": "0x5ba0127f6f25d15d74d0f10fd13c8cc8a8f10506c8426fee129bf9017c72f8af",
      "blockNumber": "0x6091e5",
      "from": "0x9038be19F4520B1d282c953CBe0A5b4a9CA144Fe",
      "to": "0x565F94889865703Af705f6571e264358b9849b4D",
      "cumulativeGasUsed": "0xd1838",
      "gasUsed": "0x26835",
      "contractAddress": null,
      "logs": [
        {
          "address": "0x565F94889865703Af705f6571e264358b9849b4D",
          "topics": [
            "0x88f021b8a8df77ffec46a7a0318494f58dc46265630993519f4440a3e87a8a67",
            "0x000000000000000000000000000000006059a610d1bd4b0ab545b72187949c9e",
            "0x000000000000000000000000000000000000000000000000000000e8d4a51000",
            "0x0000000000000000000000000000000000000000000000000000003663414895"
          ],
          "data": "0x6f13f61111a1866ccb266b65a57248c158ef95fbd40e4a311f53026ef791563d",
          "blockHash": "0x5ba0127f6f25d15d74d0f10fd13c8cc8a8f10506c8426fee129bf9017c72f8af",
          "blockNumber": "0x6091e5",
          "transactionHash": "0x1a459109481d02ca322536b54c7b6739b68f7d7425c36b5f31442048ea88b67e",
          "transactionIndex": "0xa",
          "logIndex": "0x11",
          "removed": false
        }
      ],
      "status": "0x1",
      "logsBloom": "0x00000000000000000000000000000000000000000000000000000000000000800800000000000000000000000000000000000000000000000000000000000000000000000000000000000000000040000000000000000000000000000000200000000000000040800000008000000000000000000000000000000000000000000001000000000004000000000000001000000000000000000000000000000000040800000000000000000000000000000001000000000000000000000000000000040000000000000000000000000000000000000000000000000000000000000000000000000000000200000000000000000000000000000000000000000000",
      "type": "0x2",
      "effectiveGasPrice": "0xfde2c414d"
    }
  ],
  "libraries": [],
  "pending": [],
  "returns": {},
  "timestamp": 1721240188,
  "chain": 11155111,
  "multi": false,
  "commit": "d8aed20"
}