{
  "transactions": [
    {
      "hash": "0x30e55c3418f621513fc13f5abb59b78769efe591385d132e0adb849376fda089",
      "transactionType": "CALL",
      "contractName": null,
      "contractAddress": "0xD3d378dBA136330a4352DdC811201E4801F178F7",
      "function": "placeOrder(string,uint256,string)",
      "arguments": [
        "\"6059a610-d1bd-4b0a-b545-b72187949c9e\"",
        "50241994576750518761357444112077064459071799533665784978875309381287767266877",
        "\"233593456789\""
      ],
      "transaction": {
        "type": "0x02",
        "from": "0x9038be19f4520b1d282c953cbe0a5b4a9ca144fe",
        "to": "0xd3d378dba136330a4352ddc811201e4801f178f7",
        "gas": "0x10715",
        "value": "0xe8d4a51000",
        "data": "0x425ce8c200000000000000000000000000000000000000000000000000000000000000606f13f61111a1866ccb266b65a57248c158ef95fbd40e4a311f53026ef791563d00000000000000000000000000000000000000000000000000000000000000c0000000000000000000000000000000000000000000000000000000000000002436303539613631302d643162642d346230612d623534352d62373231383739343963396500000000000000000000000000000000000000000000000000000000000000000000000000000000000000000000000000000000000000000000000c3233333539333435363738390000000000000000000000000000000000000000",
        "nonce": "0x1f",
        "accessList": []
      },
      "additionalContracts": [],
      "isFixedGasLimit": false
    }
  ],
  "receipts": [],
  "libraries": [],
  "pending": [
    "0x30e55c3418f621513fc13f5abb59b78769efe591385d132e0adb849376fda089"
  ],
  "returns": {},
  "timestamp": 1721229759,
  "chain": 11155111,
  "multi": false,
  "commit": "d8aed20"
}